:100000000C94BB000C94D8000C94D8000C94D8002D
:100010000C94D8000C94D8000C94D8000C94D80000
:100020000C94D8000C94D8000C9497010C94D50132
:100030000C94D8000C94D8000C94D8000C94D800E0
:100040000C94D8000C94D8000C94D8000C94D800D0
:100050000C94D8000C94D8000C94D8000C94D800C0
:100060000C94D8000C94D8000C94D8000C94D800B0
:100070000C94D8000C94D8000C94D8000C94D800A0
:100080000C94D8000C94D8000C94D8000C94D80090
:100090000C94D8000C94D8000C94D8000C94D80080
:1000A0000C94D8000C94D8000C94D80000010000E7
:1000B0005901120002000016014300030000120162
:1000C0000401030904FC001402030904E4001603FC
:1000D000030904D6000C0C03310032003300340055
:1000E0003500000016035500530042002000530065
:1000F00065007200690061006C0000001403590083
:100100006F007500720020004E0061006D006500F8
:1001100000000403090409024300020100C032097F
:100120000400000102020100052400100105240161
:1001300001010424020605240600010705820310BC
:10014000004009040100020A000000070503024004
:1001500000000705840240000012010002020000B6
:1001600010C0167A040001010203010001C112014E
:1001700080360181360011241FBECFEFDAE0DEBFEA
:10018000CDBF11E0A0E0B1E0EEE5F7E002C00590E0
:100190000D92A631B107D9F721E0A6E1B1E001C087
:1001A0001D92A032B207E1F70E947E030C94AD03CA
:1001B0000C94000081E08093D70080EA8093D800FF
:1001C00082E189BD09B400FEFDCF80E98093D800AB
:1001D0001092E00010921901109216018CE08093A9
:1001E000E200789408952FB7F89480911901811155
:1001F00004C02FBF8FEF9FEF089583E08093E90045
:100200008091E80085FD12C082FD04C00BC082FD14
:1002100004C008C0E8EEF0E09BE69083808185FF93
:10022000F6CF04C02FBF8FEF9FEF08958091F100AC
:100230009091E80095FD03C09BE69093E8002FBFE6
:1002400090E008959FB7F89480911901882389F070
:1002500083E08093E9008091F20081110BC020912E
:10026000E80022FF07C025FD05C02BE62093E8002B
:1002700001C080E09FBF0895CF93DF939091190153
:10028000992309F44CC09FB7F89424E02093E90027
:1002900020911701222349F02091E80025FD03C099
:1002A0009FBF8FEF41C0109217013091E400375E7D
:1002B0002091E80025FD24C09FBF9091E4003917EC
:1002C00081F090911901992361F1A9EEB0E044E029
:1002D000E8EEF0E0C4EED0E00DC09FBF9881391386
:1002E00005C081E0809317018FEF1EC09091190126
:1002F0009923C9F09FB7F8944C93208125FFEDCF47
:100300008093F1008091E80085FD03C08AE380932B
:10031000E80085E0809318019FBF80E005C08FEF63
:1003200003C08FEF01C08FEFDF91CF9108951F922F
:100330000F920FB60F9211248F939F93EF93FF9319
:10034000E1EEF0E08081108283FF11C01092E9009D
:1003500091E09093EB001092EC0092E19093ED000D
:1003600098E09093F000109219011092160182FF0C
:1003700013C080911901882379F080911801882396
:1003800059F0815080931801811106C084E0809358
:10039000E9008AE38093E800FF91EF919F918F91AC
:1003A0000F900FBE0F901F9018951F920F920FB6CF
:1003B0000F9211240F931F932F933F934F935F93AB
:1003C0006F937F938F939F93AF93BF93CF93DF935D
:1003D000EF93FF931092E9008091E80083FF4FC1F3
:1003E000E1EFF0E0A08180812081908130E0392B25
:1003F0004081908150E0BA01792BC081D08192EF89
:100400009093E800863009F059C004C081E28093DF
:10041000EB003CC14CEA50E006ED10E0CA01FA01E5
:10042000A591B4912A173B0709F5FA013296A591D7
:10043000B4916A177B07D1F4FA013496459154912F
:10044000FC01369624918C2F90E09D2B8F3F9105D7
:1004500019F010F08FEF90E0821708F4282FA8EE23
:10046000B0E070E16EEFC1EFD0E006C0495F5F4FD2
:100470004017510799F6CACF8C91982F9570E1F3E8
:1004800082FD04C1322F213108F0372F332309F4C4
:10049000FAC0FA01832F949198838150319681118B
:1004A000FACF8FEF830F90E00196480F591F231B5F
:1004B0006C932111E1CF3031F9F2E8C0853061F45D
:1004C0008EEF8093E800E8EEF0E0808180FFFDCFC2
:1004D00020682093E300DAC0893009F035C0A1110B
:1004E000CEC02093190110921601109218018EEFC0
:1004F0008093E80081E02BE631E0C9EED0E0ABEE7E
:10050000B0E00CEE10E06DEE70E08883A9014F5F63
:100510005F4FF90194919C93992361F0FA01449102
:10052000F8014083F901329694912D5F3F4FFB0112
:10053000908301C09A018F5F853039F7EAEEF0E0D1
:100540008EE180831082A2C0883081F4A03809F047
:1005500096C0E8EEF0E0808180FFFDCF8091190128
:100560008093F1008EEF8093E80090C08132B9F45F
:10057000A13A09F084C0E8EEF0E0808180FFFDCF71
:10058000E0E0F1E027E031E0A1EFB0E081918C9371
:100590002E173F07D9F78EEF8093E80077C080329F
:1005A000D1F4A13209F06BC0E8EEF0E0808182FF67
:1005B000FDCFE0E0F1E027E031E0A1EFB0E08C9189
:1005C00081932E173F07D9F7E8EEF0E08BEF808399
:1005D0008EEF80835BC0823271F4A13209F04FC08C
:1005E00020931601E8EEF0E0808180FFFDCF8EEFD2
:1005F0008093E8004BC081111AC0E8EEF0E08081E2
:1006000080FFFDCFA23851F4E9EEF0E060838091E5
:10061000EB0085FB882780F9108201C080E0E1EFC4
:10062000F0E0808310828EEF8093E8002FC0982F37
:100630009D7F913021F5A23011F5232B01F5462F36
:100640004F779FEF940F9430D0F49EEF9093E80093
:100650004093E900833021F481E28093EB0016C0DF
:1006600089E18093EB0081E090E002C0880F991F40
:100670004A95E2F7EAEEF0E08083108207C081E25B
:100680008093EB0003C06C932111F6CEFF91EF91A4
:10069000DF91CF91BF91AF919F918F917F916F919A
:1006A0005F914F913F912F911F910F910F900FBE2E
:1006B0000F901F901895F894E1E6F0E090E8908391
:1006C000108280B38F7080BB8AB1806F8AB9269AFE
:1006D0008BB18F708BB983E08093C10081E28093EE
:1006E000C0008FEF8093D1009093D0001092BF0094
:1006F0001092BE000E94A203789408950E945B03AA
:10070000E0EDF0E037E52BEB9DEF7C9902C0308304
:100710005C9A7D9902C020835D9A7E9902C0908385
:100720005E9A8FB1807789F38BB18F788BB9EDCFDB
:100730000E9422018823E1F30E94F30008950E94A1
:100740003C0108950E94DA00EAE1F1E087E091E0DF
:0E07500091838083938382830895F894FFCF72
:10075E0000E1000000000800000003000000009F00
:06076E00039803000000E7
:00000001FF
